{
  "contractName": "CardOwnership",
  "abi": [
    {
      "anonymous": false,
      "inputs": [
        {
          "indexed": true,
          "internalType": "address",
          "name": "_owner",
          "type": "address"
        },
        {
          "indexed": true,
          "internalType": "address",
          "name": "_approved",
          "type": "address"
        },
        {
          "indexed": true,
          "internalType": "uint256",
          "name": "_tokenId",
          "type": "uint256"
        }
      ],
      "name": "Approval",
      "type": "event"
    },
    {
      "anonymous": false,
      "inputs": [
        {
          "indexed": true,
          "internalType": "address",
          "name": "_owner",
          "type": "address"
        },
        {
          "indexed": true,
          "internalType": "address",
          "name": "_operator",
          "type": "address"
        },
        {
          "indexed": false,
          "internalType": "bool",
          "name": "_approved",
          "type": "bool"
        }
      ],
      "name": "ApprovalForAll",
      "type": "event"
    },
    {
      "anonymous": false,
      "inputs": [
        {
          "indexed": false,
          "internalType": "uint256",
          "name": "cardId",
          "type": "uint256"
        },
        {
          "indexed": false,
          "internalType": "enum CardFactory.Type",
          "name": "cardType",
          "type": "uint8"
        }
      ],
      "name": "CardCreated",
      "type": "event"
    },
    {
      "anonymous": false,
      "inputs": [
        {
          "indexed": false,
          "internalType": "uint256",
          "name": "playerId",
          "type": "uint256"
        },
        {
          "indexed": false,
          "internalType": "string",
          "name": "name",
          "type": "string"
        }
      ],
      "name": "NewPlayer",
      "type": "event"
    },
    {
      "anonymous": false,
      "inputs": [
        {
          "indexed": true,
          "internalType": "address",
          "name": "previousOwner",
          "type": "address"
        },
        {
          "indexed": true,
          "internalType": "address",
          "name": "newOwner",
          "type": "address"
        }
      ],
      "name": "OwnershipTransferred",
      "type": "event"
    },
    {
      "anonymous": false,
      "inputs": [
        {
          "indexed": true,
          "internalType": "address",
          "name": "_from",
          "type": "address"
        },
        {
          "indexed": true,
          "internalType": "address",
          "name": "_to",
          "type": "address"
        },
        {
          "indexed": true,
          "internalType": "uint256",
          "name": "_tokenId",
          "type": "uint256"
        }
      ],
      "name": "Transfer",
      "type": "event"
    },
    {
      "inputs": [
        {
          "internalType": "uint256",
          "name": "",
          "type": "uint256"
        }
      ],
      "name": "cardIdToOwner",
      "outputs": [
        {
          "internalType": "address",
          "name": "",
          "type": "address"
        }
      ],
      "stateMutability": "view",
      "type": "function",
      "constant": true
    },
    {
      "inputs": [
        {
          "internalType": "uint256",
          "name": "",
          "type": "uint256"
        }
      ],
      "name": "cards",
      "outputs": [
        {
          "internalType": "uint256",
          "name": "cardId",
          "type": "uint256"
        },
        {
          "internalType": "uint256",
          "name": "playerId",
          "type": "uint256"
        },
        {
          "internalType": "uint256",
          "name": "attributeHash",
          "type": "uint256"
        },
        {
          "internalType": "enum CardFactory.Type",
          "name": "cardType",
          "type": "uint8"
        }
      ],
      "stateMutability": "view",
      "type": "function",
      "constant": true
    },
    {
      "inputs": [
        {
          "internalType": "string",
          "name": "_name",
          "type": "string"
        },
        {
          "internalType": "uint8",
          "name": "_teamId",
          "type": "uint8"
        },
        {
          "internalType": "uint8",
          "name": "_position",
          "type": "uint8"
        },
        {
          "internalType": "uint16",
          "name": "_season",
          "type": "uint16"
        }
      ],
      "name": "createPlayer",
      "outputs": [],
      "stateMutability": "nonpayable",
      "type": "function"
    },
    {
      "inputs": [
        {
          "internalType": "address",
          "name": "",
          "type": "address"
        }
      ],
      "name": "existingUser",
      "outputs": [
        {
          "internalType": "bool",
          "name": "",
          "type": "bool"
        }
      ],
      "stateMutability": "view",
      "type": "function",
      "constant": true
    },
    {
      "inputs": [],
      "name": "owner",
      "outputs": [
        {
          "internalType": "address",
          "name": "",
          "type": "address"
        }
      ],
      "stateMutability": "view",
      "type": "function",
      "constant": true
    },
    {
      "inputs": [
        {
          "internalType": "address",
          "name": "",
          "type": "address"
        }
      ],
      "name": "ownerCardCount",
      "outputs": [
        {
          "internalType": "uint256",
          "name": "",
          "type": "uint256"
        }
      ],
      "stateMutability": "view",
      "type": "function",
      "constant": true
    },
    {
      "inputs": [
        {
          "internalType": "uint256",
          "name": "",
          "type": "uint256"
        }
      ],
      "name": "playerIdToPlayer",
      "outputs": [
        {
          "internalType": "string",
          "name": "name",
          "type": "string"
        },
        {
          "internalType": "uint8",
          "name": "teamId",
          "type": "uint8"
        },
        {
          "internalType": "uint8",
          "name": "position",
          "type": "uint8"
        },
        {
          "internalType": "uint16",
          "name": "season",
          "type": "uint16"
        }
      ],
      "stateMutability": "view",
      "type": "function",
      "constant": true
    },
    {
      "inputs": [
        {
          "internalType": "uint256",
          "name": "",
          "type": "uint256"
        }
      ],
      "name": "players",
      "outputs": [
        {
          "internalType": "string",
          "name": "name",
          "type": "string"
        },
        {
          "internalType": "uint8",
          "name": "teamId",
          "type": "uint8"
        },
        {
          "internalType": "uint8",
          "name": "position",
          "type": "uint8"
        },
        {
          "internalType": "uint16",
          "name": "season",
          "type": "uint16"
        }
      ],
      "stateMutability": "view",
      "type": "function",
      "constant": true
    },
    {
      "inputs": [],
      "name": "purchaseCardPack",
      "outputs": [],
      "stateMutability": "payable",
      "type": "function",
      "payable": true
    },
    {
      "inputs": [],
      "name": "renounceOwnership",
      "outputs": [],
      "stateMutability": "nonpayable",
      "type": "function"
    },
    {
      "inputs": [
        {
          "internalType": "uint256",
          "name": "_fee",
          "type": "uint256"
        }
      ],
      "name": "setCardPackFee",
      "outputs": [],
      "stateMutability": "nonpayable",
      "type": "function"
    },
    {
      "inputs": [
        {
          "internalType": "uint256",
          "name": "_quantity",
          "type": "uint256"
        }
      ],
      "name": "setCardPackQuantity",
      "outputs": [],
      "stateMutability": "nonpayable",
      "type": "function"
    },
    {
      "inputs": [
        {
          "internalType": "uint256",
          "name": "_newOdds",
          "type": "uint256"
        }
      ],
      "name": "setExotixCardOdds",
      "outputs": [],
      "stateMutability": "nonpayable",
      "type": "function"
    },
    {
      "inputs": [
        {
          "internalType": "uint256",
          "name": "_newOdds",
          "type": "uint256"
        }
      ],
      "name": "setLegendaryCardOdds",
      "outputs": [],
      "stateMutability": "nonpayable",
      "type": "function"
    },
    {
      "inputs": [
        {
          "internalType": "uint256",
          "name": "_newOdds",
          "type": "uint256"
        }
      ],
      "name": "setRareCardOdds",
      "outputs": [],
      "stateMutability": "nonpayable",
      "type": "function"
    },
    {
      "inputs": [
        {
          "internalType": "address",
          "name": "newOwner",
          "type": "address"
        }
      ],
      "name": "transferOwnership",
      "outputs": [],
      "stateMutability": "nonpayable",
      "type": "function"
    },
    {
      "inputs": [
        {
          "internalType": "address",
          "name": "_owner",
          "type": "address"
        }
      ],
      "name": "balanceOf",
      "outputs": [
        {
          "internalType": "uint256",
          "name": "",
          "type": "uint256"
        }
      ],
      "stateMutability": "view",
      "type": "function",
      "constant": true
    },
    {
      "inputs": [
        {
          "internalType": "uint256",
          "name": "_tokenId",
          "type": "uint256"
        }
      ],
      "name": "ownerOf",
      "outputs": [
        {
          "internalType": "address",
          "name": "",
          "type": "address"
        }
      ],
      "stateMutability": "view",
      "type": "function",
      "constant": true
    },
    {
      "inputs": [
        {
          "internalType": "address",
          "name": "_from",
          "type": "address"
        },
        {
          "internalType": "address",
          "name": "_to",
          "type": "address"
        },
        {
          "internalType": "uint256",
          "name": "_tokenId",
          "type": "uint256"
        }
      ],
      "name": "safeTransferFrom",
      "outputs": [],
      "stateMutability": "payable",
      "type": "function",
      "payable": true
    },
    {
      "inputs": [
        {
          "internalType": "address",
          "name": "_from",
          "type": "address"
        },
        {
          "internalType": "address",
          "name": "_to",
          "type": "address"
        },
        {
          "internalType": "uint256",
          "name": "_tokenId",
          "type": "uint256"
        },
        {
          "internalType": "bytes",
          "name": "_data",
          "type": "bytes"
        }
      ],
      "name": "safeTransferFrom",
      "outputs": [],
      "stateMutability": "payable",
      "type": "function",
      "payable": true
    },
    {
      "inputs": [
        {
          "internalType": "address",
          "name": "_from",
          "type": "address"
        },
        {
          "internalType": "address",
          "name": "_to",
          "type": "address"
        },
        {
          "internalType": "uint256",
          "name": "_tokenId",
          "type": "uint256"
        }
      ],
      "name": "transferFrom",
      "outputs": [],
      "stateMutability": "payable",
      "type": "function",
      "payable": true
    },
    {
      "inputs": [
        {
          "internalType": "address",
          "name": "_approved",
          "type": "address"
        },
        {
          "internalType": "uint256",
          "name": "_tokenId",
          "type": "uint256"
        }
      ],
      "name": "approve",
      "outputs": [],
      "stateMutability": "payable",
      "type": "function",
      "payable": true
    },
    {
      "inputs": [
        {
          "internalType": "address",
          "name": "_operator",
          "type": "address"
        },
        {
          "internalType": "bool",
          "name": "_approved",
          "type": "bool"
        }
      ],
      "name": "setApprovalForAll",
      "outputs": [],
      "stateMutability": "nonpayable",
      "type": "function"
    },
    {
      "inputs": [
        {
          "internalType": "uint256",
          "name": "_tokenId",
          "type": "uint256"
        }
      ],
      "name": "getApproved",
      "outputs": [
        {
          "internalType": "address",
          "name": "",
          "type": "address"
        }
      ],
      "stateMutability": "view",
      "type": "function",
      "constant": true
    },
    {
      "inputs": [
        {
          "internalType": "address",
          "name": "_owner",
          "type": "address"
        },
        {
          "internalType": "address",
          "name": "_operator",
          "type": "address"
        }
      ],
      "name": "isApprovedForAll",
      "outputs": [
        {
          "internalType": "bool",
          "name": "",
          "type": "bool"
        }
      ],
      "stateMutability": "view",
      "type": "function",
      "constant": true
    },
    {
      "inputs": [
        {
          "internalType": "address",
          "name": "_to",
          "type": "address"
        },
        {
          "internalType": "uint256",
          "name": "_playerId",
          "type": "uint256"
        },
        {
          "internalType": "enum CardFactory.Type",
          "name": "_type",
          "type": "uint8"
        },
        {
          "internalType": "uint256",
          "name": "_attributes",
          "type": "uint256"
        }
      ],
      "name": "mintCustomCard",
      "outputs": [],
      "stateMutability": "nonpayable",
      "type": "function"
    }
  ],
  "bytecode": "0x6080604052600060055566354a6ba7a18000600855600a600955600a80556064600b556103e8600c553480156200003557600080fd5b50620000566200004a6200005c60201b60201c565b6200006460201b60201c565b62000128565b600033905090565b60008060009054906101000a900473ffffffffffffffffffffffffffffffffffffffff169050816000806101000a81548173ffffffffffffffffffffffffffffffffffffffff021916908373ffffffffffffffffffffffffffffffffffffffff1602179055508173ffffffffffffffffffffffffffffffffffffffff168173ffffffffffffffffffffffffffffffffffffffff167f8be0079c531659141344cd1fd0a4f28419497f9722a3daafe3b4186f6b6457e060405160405180910390a35050565b6133d480620001386000396000f3fe6080604052600436106101815760003560e01c8063715018a6116100d1578063b53794c91161008a578063e25d13a811610064578063e25d13a81461054f578063e985e9c514610578578063f2fde38b146105b5578063f71d96cb146105de57610181565b8063b53794c9146104ca578063b88d4fde1461050a578063c75f384b1461052657610181565b8063715018a6146103a5578063804c4b25146103bc5780638da5cb5b146103f95780638dc1076814610424578063a22cb46514610464578063a3d2065f1461048d57610181565b806341845a141161013e5780634ccf0174116101185780634ccf0174146102d9578063552788da146103025780636352211e1461032b57806370a082311461036857610181565b806341845a1414610257578063419941401461028057806342842e0e146102bd57610181565b8063081812fc14610186578063095ea7b3146101c35780631da17a54146101df57806323b872dd146102085780632cfae8d31461022457806336185bdf1461022e575b600080fd5b34801561019257600080fd5b506101ad60048036038101906101a891906129c3565b61061e565b6040516101ba9190612cf2565b60405180910390f35b6101dd60048036038101906101d89190612880565b610700565b005b3480156101eb57600080fd5b50610206600480360381019061020191906128bc565b6109fb565b005b610222600480360381019061021d9190612775565b610a97565b005b61022c610cb9565b005b34801561023a57600080fd5b50610255600480360381019061025091906129c3565b610cd1565b005b34801561026357600080fd5b5061027e600480360381019061027991906129c3565b610d57565b005b34801561028c57600080fd5b506102a760048036038101906102a291906129c3565b610ddd565b6040516102b49190612cf2565b60405180910390f35b6102d760048036038101906102d29190612775565b610e10565b005b3480156102e557600080fd5b5061030060048036038101906102fb9190612948565b610e30565b005b34801561030e57600080fd5b50610329600480360381019061032491906129c3565b61107e565b005b34801561033757600080fd5b50610352600480360381019061034d91906129c3565b611104565b60405161035f9190612cf2565b60405180910390f35b34801561037457600080fd5b5061038f600480360381019061038a9190612710565b611141565b60405161039c9190612ea0565b60405180910390f35b3480156103b157600080fd5b506103ba61118a565b005b3480156103c857600080fd5b506103e360048036038101906103de9190612710565b611212565b6040516103f09190612ea0565b60405180910390f35b34801561040557600080fd5b5061040e61122a565b60405161041b9190612cf2565b60405180910390f35b34801561043057600080fd5b5061044b600480360381019061044691906129c3565b611253565b60405161045b9493929190612f14565b60405180910390f35b34801561047057600080fd5b5061048b60048036038101906104869190612844565b6112a0565b005b34801561049957600080fd5b506104b460048036038101906104af9190612710565b61139d565b6040516104c19190612d59565b60405180910390f35b3480156104d657600080fd5b506104f160048036038101906104ec91906129c3565b6113bd565b6040516105019493929190612d74565b60405180910390f35b610524600480360381019061051f91906127c4565b61149d565b005b34801561053257600080fd5b5061054d600480360381019061054891906129c3565b6114f4565b005b34801561055b57600080fd5b50610576600480360381019061057191906129c3565b61157a565b005b34801561058457600080fd5b5061059f600480360381019061059a9190612739565b611600565b6040516105ac9190612d59565b60405180910390f35b3480156105c157600080fd5b506105dc60048036038101906105d79190612710565b611694565b005b3480156105ea57600080fd5b50610605600480360381019061060091906129c3565b61178c565b6040516106159493929190612d74565b60405180910390f35b600081600073ffffffffffffffffffffffffffffffffffffffff166007600083815260200190815260200160002060009054906101000a900473ffffffffffffffffffffffffffffffffffffffff1673ffffffffffffffffffffffffffffffffffffffff1614156106c4576040517f08c379a00000000000000000000000000000000000000000000000000000000081526004016106bb90612de0565b60405180910390fd5b600f600084815260200190815260200160002060009054906101000a900473ffffffffffffffffffffffffffffffffffffffff16915050919050565b8060006007600083815260200190815260200160002060009054906101000a900473ffffffffffffffffffffffffffffffffffffffff1690503373ffffffffffffffffffffffffffffffffffffffff168173ffffffffffffffffffffffffffffffffffffffff1614806107f95750601060008273ffffffffffffffffffffffffffffffffffffffff1673ffffffffffffffffffffffffffffffffffffffff16815260200190815260200160002060003373ffffffffffffffffffffffffffffffffffffffff1673ffffffffffffffffffffffffffffffffffffffff16815260200190815260200160002060009054906101000a900460ff165b61080257600080fd5b82600073ffffffffffffffffffffffffffffffffffffffff166007600083815260200190815260200160002060009054906101000a900473ffffffffffffffffffffffffffffffffffffffff1673ffffffffffffffffffffffffffffffffffffffff1614156108a6576040517f08c379a000000000000000000000000000000000000000000000000000000000815260040161089d90612de0565b60405180910390fd5b6007600085815260200190815260200160002060009054906101000a900473ffffffffffffffffffffffffffffffffffffffff1673ffffffffffffffffffffffffffffffffffffffff163373ffffffffffffffffffffffffffffffffffffffff1614610947576040517f08c379a000000000000000000000000000000000000000000000000000000000815260040161093e90612e80565b60405180910390fd5b84600f600086815260200190815260200160002060006101000a81548173ffffffffffffffffffffffffffffffffffffffff021916908373ffffffffffffffffffffffffffffffffffffffff160217905550838573ffffffffffffffffffffffffffffffffffffffff163373ffffffffffffffffffffffffffffffffffffffff167f8c5be1e5ebec7d5bd14f71427d1e84f3dd0314c0f7b2291e5b200ac8c7c3b92560405160405180910390a45050505050565b610a0361187c565b73ffffffffffffffffffffffffffffffffffffffff16610a2161122a565b73ffffffffffffffffffffffffffffffffffffffff1614610a77576040517f08c379a0000000000000000000000000000000000000000000000000000000008152600401610a6e90612e40565b60405180910390fd5b6000610a84848484611884565b9050610a9085826119e1565b5050505050565b8060006007600083815260200190815260200160002060009054906101000a900473ffffffffffffffffffffffffffffffffffffffff1690503373ffffffffffffffffffffffffffffffffffffffff168173ffffffffffffffffffffffffffffffffffffffff161480610b6857503373ffffffffffffffffffffffffffffffffffffffff16600f600084815260200190815260200160002060009054906101000a900473ffffffffffffffffffffffffffffffffffffffff1673ffffffffffffffffffffffffffffffffffffffff16145b80610bf95750601060008273ffffffffffffffffffffffffffffffffffffffff1673ffffffffffffffffffffffffffffffffffffffff16815260200190815260200160002060003373ffffffffffffffffffffffffffffffffffffffff1673ffffffffffffffffffffffffffffffffffffffff16815260200190815260200160002060009054906101000a900460ff165b610c0257600080fd5b82600073ffffffffffffffffffffffffffffffffffffffff166007600083815260200190815260200160002060009054906101000a900473ffffffffffffffffffffffffffffffffffffffff1673ffffffffffffffffffffffffffffffffffffffff161415610ca6576040517f08c379a0000000000000000000000000000000000000000000000000000000008152600401610c9d90612de0565b60405180910390fd5b610cb1868686611b9d565b505050505050565b6008543414610cc757600080fd5b610ccf611c85565b565b610cd961187c565b73ffffffffffffffffffffffffffffffffffffffff16610cf761122a565b73ffffffffffffffffffffffffffffffffffffffff1614610d4d576040517f08c379a0000000000000000000000000000000000000000000000000000000008152600401610d4490612e40565b60405180910390fd5b80600b8190555050565b610d5f61187c565b73ffffffffffffffffffffffffffffffffffffffff16610d7d61122a565b73ffffffffffffffffffffffffffffffffffffffff1614610dd3576040517f08c379a0000000000000000000000000000000000000000000000000000000008152600401610dca90612e40565b60405180910390fd5b80600a8190555050565b60076020528060005260406000206000915054906101000a900473ffffffffffffffffffffffffffffffffffffffff1681565b610e2b83838360405180602001604052806000815250611d1b565b505050565b610e3861187c565b73ffffffffffffffffffffffffffffffffffffffff16610e5661122a565b73ffffffffffffffffffffffffffffffffffffffff1614610eac576040517f08c379a0000000000000000000000000000000000000000000000000000000008152600401610ea390612e40565b60405180910390fd5b600060405180608001604052808681526020018560ff1681526020018460ff1681526020018361ffff16815250905060028190806001815401808255809150506001900390600052602060002090600202016000909190919091506000820151816000019080519060200190610f23929190612528565b5060208201518160010160006101000a81548160ff021916908360ff16021790555060408201518160010160016101000a81548160ff021916908360ff16021790555060608201518160010160026101000a81548161ffff021916908361ffff1602179055505050806003600060015481526020019081526020016000206000820151816000019080519060200190610fbd929190612528565b5060208201518160010160006101000a81548160ff021916908360ff16021790555060408201518160010160016101000a81548160ff021916908360ff16021790555060608201518160010160026101000a81548161ffff021916908361ffff1602179055509050507fc617f3fbc3f6a35c0509a5f01fb4907e9c6e94cff260c3fe739bafd93cf2240560015486604051611059929190612ee4565b60405180910390a1611076600180546120f090919063ffffffff16565b505050505050565b61108661187c565b73ffffffffffffffffffffffffffffffffffffffff166110a461122a565b73ffffffffffffffffffffffffffffffffffffffff16146110fa576040517f08c379a00000000000000000000000000000000000000000000000000000000081526004016110f190612e40565b60405180910390fd5b8060088190555050565b60006007600083815260200190815260200160002060009054906101000a900473ffffffffffffffffffffffffffffffffffffffff169050919050565b6000600d60008373ffffffffffffffffffffffffffffffffffffffff1673ffffffffffffffffffffffffffffffffffffffff168152602001908152602001600020549050919050565b61119261187c565b73ffffffffffffffffffffffffffffffffffffffff166111b061122a565b73ffffffffffffffffffffffffffffffffffffffff1614611206576040517f08c379a00000000000000000000000000000000000000000000000000000000081526004016111fd90612e40565b60405180910390fd5b6112106000612106565b565b600d6020528060005260406000206000915090505481565b60008060009054906101000a900473ffffffffffffffffffffffffffffffffffffffff16905090565b6006818154811061126357600080fd5b90600052602060002090600402016000915090508060000154908060010154908060020154908060030160009054906101000a900460ff16905084565b80601060003373ffffffffffffffffffffffffffffffffffffffff1673ffffffffffffffffffffffffffffffffffffffff16815260200190815260200160002060008473ffffffffffffffffffffffffffffffffffffffff1673ffffffffffffffffffffffffffffffffffffffff16815260200190815260200160002060006101000a81548160ff0219169083151502179055508173ffffffffffffffffffffffffffffffffffffffff163373ffffffffffffffffffffffffffffffffffffffff167f17307eab39ab6107e8899845ad3d59bd9653f200f220920489ca2b5937696c31836040516113919190612d59565b60405180910390a35050565b600e6020528060005260406000206000915054906101000a900460ff1681565b60036020528060005260406000206000915090508060000180546113e09061313e565b80601f016020809104026020016040519081016040528092919081815260200182805461140c9061313e565b80156114595780601f1061142e57610100808354040283529160200191611459565b820191906000526020600020905b81548152906001019060200180831161143c57829003601f168201915b5050505050908060010160009054906101000a900460ff16908060010160019054906101000a900460ff16908060010160029054906101000a900461ffff16905084565b6114ed85858585858080601f016020809104026020016040519081016040528093929190818152602001838380828437600081840152601f19601f82011690508083019250505050505050611d1b565b5050505050565b6114fc61187c565b73ffffffffffffffffffffffffffffffffffffffff1661151a61122a565b73ffffffffffffffffffffffffffffffffffffffff1614611570576040517f08c379a000000000000000000000000000000000000000000000000000000000815260040161156790612e40565b60405180910390fd5b80600c8190555050565b61158261187c565b73ffffffffffffffffffffffffffffffffffffffff166115a061122a565b73ffffffffffffffffffffffffffffffffffffffff16146115f6576040517f08c379a00000000000000000000000000000000000000000000000000000000081526004016115ed90612e40565b60405180910390fd5b8060098190555050565b6000601060008473ffffffffffffffffffffffffffffffffffffffff1673ffffffffffffffffffffffffffffffffffffffff16815260200190815260200160002060008373ffffffffffffffffffffffffffffffffffffffff1673ffffffffffffffffffffffffffffffffffffffff16815260200190815260200160002060009054906101000a900460ff16905092915050565b61169c61187c565b73ffffffffffffffffffffffffffffffffffffffff166116ba61122a565b73ffffffffffffffffffffffffffffffffffffffff1614611710576040517f08c379a000000000000000000000000000000000000000000000000000000000815260040161170790612e40565b60405180910390fd5b600073ffffffffffffffffffffffffffffffffffffffff168173ffffffffffffffffffffffffffffffffffffffff161415611780576040517f08c379a000000000000000000000000000000000000000000000000000000000815260040161177790612dc0565b60405180910390fd5b61178981612106565b50565b6002818154811061179c57600080fd5b90600052602060002090600202016000915090508060000180546117bf9061313e565b80601f01602080910402602001604051908101604052809291908181526020018280546117eb9061313e565b80156118385780601f1061180d57610100808354040283529160200191611838565b820191906000526020600020905b81548152906001019060200180831161181b57829003601f168201915b5050505050908060010160009054906101000a900460ff16908060010160019054906101000a900460ff16908060010160029054906101000a900461ffff16905084565b600033905090565b600080604051806080016040528060045481526020018681526020018481526020018560038111156118df577f4e487b7100000000000000000000000000000000000000000000000000000000600052602160045260246000fd5b8152509050600681908060018154018082558091505060019003906000526020600020906004020160009091909190915060008201518160000155602082015181600101556040820151816002015560608201518160030160006101000a81548160ff0219169083600381111561197f577f4e487b7100000000000000000000000000000000000000000000000000000000600052602160045260246000fd5b021790555050507fbaea33693399ad5c8ce728912bde41320e13de305c5ca8fcd3e2b7bf943cb609600454856040516119b9929190612ebb565b60405180910390a16119d760016004546120f090919063ffffffff16565b9150509392505050565b600073ffffffffffffffffffffffffffffffffffffffff168273ffffffffffffffffffffffffffffffffffffffff161415611a51576040517f08c379a0000000000000000000000000000000000000000000000000000000008152600401611a4890612e60565b60405180910390fd5b600073ffffffffffffffffffffffffffffffffffffffff166007600083815260200190815260200160002060009054906101000a900473ffffffffffffffffffffffffffffffffffffffff1673ffffffffffffffffffffffffffffffffffffffff1614611af3576040517f08c379a0000000000000000000000000000000000000000000000000000000008152600401611aea90612e00565b60405180910390fd5b816007600083815260200190815260200160002060006101000a81548173ffffffffffffffffffffffffffffffffffffffff021916908373ffffffffffffffffffffffffffffffffffffffff160217905550611b986001600d60008573ffffffffffffffffffffffffffffffffffffffff1673ffffffffffffffffffffffffffffffffffffffff168152602001908152602001600020546120f090919063ffffffff16565b505050565b600f600082815260200190815260200160002060006101000a81549073ffffffffffffffffffffffffffffffffffffffff0219169055816007600083815260200190815260200160002060006101000a81548173ffffffffffffffffffffffffffffffffffffffff021916908373ffffffffffffffffffffffffffffffffffffffff160217905550808273ffffffffffffffffffffffffffffffffffffffff168473ffffffffffffffffffffffffffffffffffffffff167fddf252ad1be2c89b69c2b068fc378daa952ba7f163c4a11628f55a4df523b3ef60405160405180910390a4505050565b6000611c95600c548260036121ca565b9050611ca5600b548260026121ca565b9050611cb5600a548260016121ca565b9050611cc381600954612288565b611d17600954600d60003373ffffffffffffffffffffffffffffffffffffffff1673ffffffffffffffffffffffffffffffffffffffff168152602001908152602001600020546120f090919063ffffffff16565b5050565b8160006007600083815260200190815260200160002060009054906101000a900473ffffffffffffffffffffffffffffffffffffffff1690503373ffffffffffffffffffffffffffffffffffffffff168173ffffffffffffffffffffffffffffffffffffffff161480611dec57503373ffffffffffffffffffffffffffffffffffffffff16600f600084815260200190815260200160002060009054906101000a900473ffffffffffffffffffffffffffffffffffffffff1673ffffffffffffffffffffffffffffffffffffffff16145b80611e7d5750601060008273ffffffffffffffffffffffffffffffffffffffff1673ffffffffffffffffffffffffffffffffffffffff16815260200190815260200160002060003373ffffffffffffffffffffffffffffffffffffffff1673ffffffffffffffffffffffffffffffffffffffff16815260200190815260200160002060009054906101000a900460ff165b611e8657600080fd5b83600073ffffffffffffffffffffffffffffffffffffffff166007600083815260200190815260200160002060009054906101000a900473ffffffffffffffffffffffffffffffffffffffff1673ffffffffffffffffffffffffffffffffffffffff161415611f2a576040517f08c379a0000000000000000000000000000000000000000000000000000000008152600401611f2190612de0565b60405180910390fd5b600073ffffffffffffffffffffffffffffffffffffffff168673ffffffffffffffffffffffffffffffffffffffff161415611f9a576040517f08c379a0000000000000000000000000000000000000000000000000000000008152600401611f9190612e60565b60405180910390fd5b611fa5878787611b9d565b611fc48673ffffffffffffffffffffffffffffffffffffffff1661232a565b156120e75760008673ffffffffffffffffffffffffffffffffffffffff1663150b7a02338a89896040518563ffffffff1660e01b815260040161200a9493929190612d0d565b602060405180830381600087803b15801561202457600080fd5b505af1158015612038573d6000803e3d6000fd5b505050506040513d601f19601f8201168201806040525081019061205c919061291f565b905063150b7a0260e01b7bffffffffffffffffffffffffffffffffffffffffffffffffffffffff1916817bffffffffffffffffffffffffffffffffffffffffffffffffffffffff1916146120e5576040517f08c379a00000000000000000000000000000000000000000000000000000000081526004016120dc90612e20565b60405180910390fd5b505b50505050505050565b600081836120fe9190612ff2565b905092915050565b60008060009054906101000a900473ffffffffffffffffffffffffffffffffffffffff169050816000806101000a81548173ffffffffffffffffffffffffffffffffffffffff021916908373ffffffffffffffffffffffffffffffffffffffff1602179055508173ffffffffffffffffffffffffffffffffffffffff168173ffffffffffffffffffffffffffffffffffffffff167f8be0079c531659141344cd1fd0a4f28419497f9722a3daafe3b4186f6b6457e060405160405180910390a35050565b6000808390506000856121db612375565b6121e591906131c3565b141561227d5760006002805490506121fb612375565b61220591906131c3565b905061221181856123c3565b3360076000600454815260200190815260200160002060006101000a81548173ffffffffffffffffffffffffffffffffffffffff021916908373ffffffffffffffffffffffffffffffffffffffff1602179055506122796001866120f090919063ffffffff16565b9150505b809150509392505050565b60008290505b818110156123255760006002805490506122a6612375565b6122b091906131c3565b90506122bd8160006123c3565b3360076000600454815260200190815260200160002060006101000a81548173ffffffffffffffffffffffffffffffffffffffff021916908373ffffffffffffffffffffffffffffffffffffffff16021790555050808061231d90613170565b91505061228e565b505050565b60008060007fc5d2460186f7233c927e7db2dcc703c0e500b653ca82273b7bfad8045d85a47060001b9050833f91506000801b821415801561236c5750808214155b92505050919050565b600061238d60016005546120f090919063ffffffff16565b5044426005546040516020016123a593929190612cb5565b6040516020818303038152906040528051906020012060001c905090565b60006123cd612375565b9050600060405180608001604052806004548152602001858152602001838152602001846003811115612429577f4e487b7100000000000000000000000000000000000000000000000000000000600052602160045260246000fd5b8152509050600681908060018154018082558091505060019003906000526020600020906004020160009091909190915060008201518160000155602082015181600101556040820151816002015560608201518160030160006101000a81548160ff021916908360038111156124c9577f4e487b7100000000000000000000000000000000000000000000000000000000600052602160045260246000fd5b021790555050507fbaea33693399ad5c8ce728912bde41320e13de305c5ca8fcd3e2b7bf943cb60960045484604051612503929190612ebb565b60405180910390a161252160016004546120f090919063ffffffff16565b5050505050565b8280546125349061313e565b90600052602060002090601f016020900481019282612556576000855561259d565b82601f1061256f57805160ff191683800117855561259d565b8280016001018555821561259d579182015b8281111561259c578251825591602001919060010190612581565b5b5090506125aa91906125ae565b5090565b5b808211156125c75760008160009055506001016125af565b5090565b60006125de6125d984612f8a565b612f59565b9050828152602081018484840111156125f657600080fd5b6126018482856130fc565b509392505050565b60008135905061261881613304565b92915050565b60008135905061262d8161331b565b92915050565b60008151905061264281613332565b92915050565b60008083601f84011261265a57600080fd5b8235905067ffffffffffffffff81111561267357600080fd5b60208301915083600182028301111561268b57600080fd5b9250929050565b6000813590506126a181613349565b92915050565b600082601f8301126126b857600080fd5b81356126c88482602086016125cb565b91505092915050565b6000813590506126e081613359565b92915050565b6000813590506126f581613370565b92915050565b60008135905061270a81613387565b92915050565b60006020828403121561272257600080fd5b600061273084828501612609565b91505092915050565b6000806040838503121561274c57600080fd5b600061275a85828601612609565b925050602061276b85828601612609565b9150509250929050565b60008060006060848603121561278a57600080fd5b600061279886828701612609565b93505060206127a986828701612609565b92505060406127ba868287016126e6565b9150509250925092565b6000806000806000608086880312156127dc57600080fd5b60006127ea88828901612609565b95505060206127fb88828901612609565b945050604061280c888289016126e6565b935050606086013567ffffffffffffffff81111561282957600080fd5b61283588828901612648565b92509250509295509295909350565b6000806040838503121561285757600080fd5b600061286585828601612609565b92505060206128768582860161261e565b9150509250929050565b6000806040838503121561289357600080fd5b60006128a185828601612609565b92505060206128b2858286016126e6565b9150509250929050565b600080600080608085870312156128d257600080fd5b60006128e087828801612609565b94505060206128f1878288016126e6565b935050604061290287828801612692565b9250506060612913878288016126e6565b91505092959194509250565b60006020828403121561293157600080fd5b600061293f84828501612633565b91505092915050565b6000806000806080858703121561295e57600080fd5b600085013567ffffffffffffffff81111561297857600080fd5b612984878288016126a7565b9450506020612995878288016126fb565b93505060406129a6878288016126fb565b92505060606129b7878288016126d1565b91505092959194509250565b6000602082840312156129d557600080fd5b60006129e3848285016126e6565b91505092915050565b6129f581613048565b82525050565b612a048161305a565b82525050565b6000612a1582612fba565b612a1f8185612fd0565b9350612a2f81856020860161310b565b612a38816132df565b840191505092915050565b612a4c816130ea565b82525050565b6000612a5d82612fc5565b612a678185612fe1565b9350612a7781856020860161310b565b612a80816132df565b840191505092915050565b6000612a98602683612fe1565b91507f4f776e61626c653a206e6577206f776e657220697320746865207a65726f206160008301527f64647265737300000000000000000000000000000000000000000000000000006020830152604082019050919050565b6000612afe600c83612fe1565b91507f494e56414c4944204341524400000000000000000000000000000000000000006000830152602082019050919050565b6000612b3e601383612fe1565b91507f4341524420414c524541445920455849535453000000000000000000000000006000830152602082019050919050565b6000612b7e601283612fe1565b91507f43414e4e4f542052454345495645204e465400000000000000000000000000006000830152602082019050919050565b6000612bbe602083612fe1565b91507f4f776e61626c653a2063616c6c6572206973206e6f7420746865206f776e65726000830152602082019050919050565b6000612bfe600c83612fe1565b91507f5a45524f204144445245535300000000000000000000000000000000000000006000830152602082019050919050565b6000612c3e601783612fe1565b91507f4e4f542043555252454e5420544f4b454e204f574e45520000000000000000006000830152602082019050919050565b612c7a816130a5565b82525050565b612c89816130d3565b82525050565b612ca0612c9b826130d3565b6131b9565b82525050565b612caf816130dd565b82525050565b6000612cc18286612c8f565b602082019150612cd18285612c8f565b602082019150612ce18284612c8f565b602082019150819050949350505050565b6000602082019050612d0760008301846129ec565b92915050565b6000608082019050612d2260008301876129ec565b612d2f60208301866129ec565b612d3c6040830185612c80565b8181036060830152612d4e8184612a0a565b905095945050505050565b6000602082019050612d6e60008301846129fb565b92915050565b60006080820190508181036000830152612d8e8187612a52565b9050612d9d6020830186612ca6565b612daa6040830185612ca6565b612db76060830184612c71565b95945050505050565b60006020820190508181036000830152612dd981612a8b565b9050919050565b60006020820190508181036000830152612df981612af1565b9050919050565b60006020820190508181036000830152612e1981612b31565b9050919050565b60006020820190508181036000830152612e3981612b71565b9050919050565b60006020820190508181036000830152612e5981612bb1565b9050919050565b60006020820190508181036000830152612e7981612bf1565b9050919050565b60006020820190508181036000830152612e9981612c31565b9050919050565b6000602082019050612eb56000830184612c80565b92915050565b6000604082019050612ed06000830185612c80565b612edd6020830184612a43565b9392505050565b6000604082019050612ef96000830185612c80565b8181036020830152612f0b8184612a52565b90509392505050565b6000608082019050612f296000830187612c80565b612f366020830186612c80565b612f436040830185612c80565b612f506060830184612a43565b95945050505050565b6000604051905081810181811067ffffffffffffffff82111715612f8057612f7f6132b0565b5b8060405250919050565b600067ffffffffffffffff821115612fa557612fa46132b0565b5b601f19601f8301169050602081019050919050565b600081519050919050565b600081519050919050565b600082825260208201905092915050565b600082825260208201905092915050565b6000612ffd826130d3565b9150613008836130d3565b9250827fffffffffffffffffffffffffffffffffffffffffffffffffffffffffffffffff0382111561303d5761303c6131f4565b5b828201905092915050565b6000613053826130b3565b9050919050565b60008115159050919050565b60007fffffffff0000000000000000000000000000000000000000000000000000000082169050919050565b60008190506130a0826132f0565b919050565b600061ffff82169050919050565b600073ffffffffffffffffffffffffffffffffffffffff82169050919050565b6000819050919050565b600060ff82169050919050565b60006130f582613092565b9050919050565b82818337600083830152505050565b60005b8381101561312957808201518184015260208101905061310e565b83811115613138576000848401525b50505050565b6000600282049050600182168061315657607f821691505b6020821081141561316a57613169613281565b5b50919050565b600061317b826130d3565b91507fffffffffffffffffffffffffffffffffffffffffffffffffffffffffffffffff8214156131ae576131ad6131f4565b5b600182019050919050565b6000819050919050565b60006131ce826130d3565b91506131d9836130d3565b9250826131e9576131e8613223565b5b828206905092915050565b7f4e487b7100000000000000000000000000000000000000000000000000000000600052601160045260246000fd5b7f4e487b7100000000000000000000000000000000000000000000000000000000600052601260045260246000fd5b7f4e487b7100000000000000000000000000000000000000000000000000000000600052602160045260246000fd5b7f4e487b7100000000000000000000000000000000000000000000000000000000600052602260045260246000fd5b7f4e487b7100000000000000000000000000000000000000000000000000000000600052604160045260246000fd5b6000601f19601f8301169050919050565b6004811061330157613300613252565b5b50565b61330d81613048565b811461331857600080fd5b50565b6133248161305a565b811461332f57600080fd5b50565b61333b81613066565b811461334657600080fd5b50565b6004811061335657600080fd5b50565b613362816130a5565b811461336d57600080fd5b50565b613379816130d3565b811461338457600080fd5b50565b613390816130dd565b811461339b57600080fd5b5056fea26469706673582212209b2dfd77db657c5c6ff485e5a185ee6797004e3f2dcb118b41c8aca4777f74b664736f6c63430008000033",
  "immutableReferences": {},
  "source": "// SPDX-License-Identifier: UNLICENSED\npragma solidity ^0.8.0;\n\nimport \"./card-pack-factory.sol\";\nimport \"./erc721.sol\";\nimport \"../utils/address-utils.sol\";\nimport \"./erc721-token-receiver.sol\";\n\ncontract CardOwnership is CardPackFactory, ERC721 {\n\n    using AddressUtils for address;\n    using SafeMath for uint256;\n\n    bytes4 internal constant MAGIC_ON_ERC721_RECEIVED = 0x150b7a02;\n\n    mapping (uint256 => address) internal idToApproval;\n    mapping (address => mapping (address => bool)) internal ownerToOperators;\n\n    modifier canOperate(uint256 _tokenId) {\n        address owner = cardIdToOwner[_tokenId];\n        require(owner == msg.sender || ownerToOperators[owner][msg.sender]);\n        _;\n    }\n\n    modifier canTransfer(uint256 _tokenId) {\n        address owner = cardIdToOwner[_tokenId];\n        require(owner == msg.sender || idToApproval[_tokenId] == msg.sender || ownerToOperators[owner][msg.sender]);\n        _;\n    }\n\n    modifier isValidCard(uint _cardId) {\n        require(cardIdToOwner[_cardId] != address(0), \"INVALID CARD\");\n        _;\n    }\n\n    function balanceOf(address _owner) external override view returns(uint) {\n        return ownerCardCount[_owner];\n    }\n\n    function ownerOf(uint _tokenId) external override view returns(address) {\n        return cardIdToOwner[_tokenId];\n    }\n\n    function safeTransferFrom(address _from, address _to, uint256 _tokenId) external payable override {\n        _safeTransferFrom(_from, _to, _tokenId, \"\");\n    }\n\n    function safeTransferFrom(address _from, address _to, uint256 _tokenId, bytes calldata _data) external payable override {\n        _safeTransferFrom(_from, _to, _tokenId, _data);\n    }\n\n    function transferFrom(address _from, address _to, uint256 _tokenId) external payable override canTransfer(_tokenId) isValidCard(_tokenId) {\n        _transfer(_from, _to, _tokenId);\n    }\n\n    function approve(address _approved, uint256 _tokenId) external payable override canOperate(_tokenId) isValidCard(_tokenId) {\n        require(msg.sender == cardIdToOwner[_tokenId], \"NOT CURRENT TOKEN OWNER\");\n        idToApproval[_tokenId] = _approved;\n        emit Approval(msg.sender, _approved, _tokenId);\n    }\n\n    function setApprovalForAll(address _operator, bool _approved) external override {\n        ownerToOperators[msg.sender][_operator] = _approved;\n        emit ApprovalForAll(msg.sender, _operator, _approved);\n    }\n\n    function getApproved(uint256 _tokenId) external override view isValidCard(_tokenId) returns(address) {\n        return idToApproval[_tokenId];\n    }\n\n    function isApprovedForAll(address _owner, address _operator) external override view returns(bool) {\n        return ownerToOperators[_owner][_operator];\n    }\n\n    function _transfer(address _from, address _to, uint256 _tokenId) private {\n        delete idToApproval[_tokenId];\n        cardIdToOwner[_tokenId] = _to;\n        emit Transfer(_from, _to, _tokenId);\n    }\n\n    function _safeTransferFrom(address _from, address _to, uint256 _tokenId, bytes memory _data) private canTransfer(_tokenId) isValidCard(_tokenId) {\n        require(_to != address(0), \"ZERO ADDRESS\");\n        _transfer(_from, _to, _tokenId);\n        if(_to.isContract()) {\n            bytes4 retval = ERC721TokenReceiver(_to).onERC721Received(msg.sender, _from, _tokenId, _data);\n            require(retval == MAGIC_ON_ERC721_RECEIVED, \"CANNOT RECEIVE NFT\");\n        }\n    }\n\n    function mintCustomCard(address _to, uint _playerId, Type _type, uint _attributes) external onlyOwner {\n        uint tokenId = createCustomCard(_playerId, _type, _attributes);\n        _mint(_to, tokenId);\n    }\n\n    function _mint(address _to, uint256 _tokenId) internal {\n        require(_to != address(0), \"ZERO ADDRESS\");\n        require(cardIdToOwner[_tokenId] == address(0), \"CARD ALREADY EXISTS\");\n\n        cardIdToOwner[_tokenId] = _to;\n        ownerCardCount[_to].add(1);\n    }\n    \n}",
  "sourcePath": "/Users/tkma4fr/Development/solidity-app/contracts/card-ownership.sol",
  "compiler": {
    "name": "solc",
    "version": "0.8.0+commit.c7dfd78e.Emscripten.clang"
  },
  "schemaVersion": "3.4.2",
  "updatedAt": "2021-08-26T00:58:00.051Z",
  "networkType": "ethereum",
  "devdoc": {
    "kind": "dev",
    "methods": {
      "approve(address,uint256)": {
        "details": "The zero address indicates there is no approved address.  Throws unless `msg.sender` is the current NFT owner, or an authorized  operator of the current owner.",
        "params": {
          "_approved": "The new approved NFT controller",
          "_tokenId": "The NFT to approve"
        }
      },
      "balanceOf(address)": {
        "details": "NFTs assigned to the zero address are considered invalid, and this  function throws for queries about the zero address.",
        "params": {
          "_owner": "An address for whom to query the balance"
        },
        "returns": {
          "_0": "The number of NFTs owned by `_owner`, possibly zero"
        }
      },
      "getApproved(uint256)": {
        "details": "Throws if `_tokenId` is not a valid NFT.",
        "params": {
          "_tokenId": "The NFT to find the approved address for"
        },
        "returns": {
          "_0": "The approved address for this NFT, or the zero address if there is none"
        }
      },
      "isApprovedForAll(address,address)": {
        "params": {
          "_operator": "The address that acts on behalf of the owner",
          "_owner": "The address that owns the NFTs"
        },
        "returns": {
          "_0": "True if `_operator` is an approved operator for `_owner`, false otherwise"
        }
      },
      "owner()": {
        "details": "Returns the address of the current owner."
      },
      "ownerOf(uint256)": {
        "details": "NFTs assigned to zero address are considered invalid, and queries  about them do throw.",
        "params": {
          "_tokenId": "The identifier for an NFT"
        },
        "returns": {
          "_0": "The address of the owner of the NFT"
        }
      },
      "renounceOwnership()": {
        "details": "Leaves the contract without owner. It will not be possible to call `onlyOwner` functions anymore. Can only be called by the current owner. NOTE: Renouncing ownership will leave the contract without an owner, thereby removing any functionality that is only available to the owner."
      },
      "safeTransferFrom(address,address,uint256)": {
        "details": "This works identically to the other function with an extra data parameter,  except this function just sets data to \"\".",
        "params": {
          "_from": "The current owner of the NFT",
          "_to": "The new owner",
          "_tokenId": "The NFT to transfer"
        }
      },
      "setApprovalForAll(address,bool)": {
        "details": "Emits the ApprovalForAll event. The contract MUST allow  multiple operators per owner.",
        "params": {
          "_approved": "True if the operator is approved, false to revoke approval",
          "_operator": "Address to add to the set of authorized operators"
        }
      },
      "transferFrom(address,address,uint256)": {
        "details": "Throws unless `msg.sender` is the current owner, an authorized  operator, or the approved address for this NFT. Throws if `_from` is  not the current owner. Throws if `_to` is the zero address. Throws if  `_tokenId` is not a valid NFT.",
        "params": {
          "_from": "The current owner of the NFT",
          "_to": "The new owner",
          "_tokenId": "The NFT to transfer"
        }
      },
      "transferOwnership(address)": {
        "details": "Transfers ownership of the contract to a new account (`newOwner`). Can only be called by the current owner."
      }
    },
    "version": 1
  },
  "userdoc": {
    "kind": "user",
    "methods": {
      "approve(address,uint256)": {
        "notice": "Change or reaffirm the approved address for an NFT"
      },
      "balanceOf(address)": {
        "notice": "Count all NFTs assigned to an owner"
      },
      "getApproved(uint256)": {
        "notice": "Get the approved address for a single NFT"
      },
      "isApprovedForAll(address,address)": {
        "notice": "Query if an address is an authorized operator for another address"
      },
      "ownerOf(uint256)": {
        "notice": "Find the owner of an NFT"
      },
      "safeTransferFrom(address,address,uint256)": {
        "notice": "Transfers the ownership of an NFT from one address to another address"
      },
      "setApprovalForAll(address,bool)": {
        "notice": "Enable or disable approval for a third party (\"operator\") to manage  all of `msg.sender`'s assets"
      },
      "transferFrom(address,address,uint256)": {
        "notice": "Transfer ownership of an NFT -- THE CALLER IS RESPONSIBLE  TO CONFIRM THAT `_to` IS CAPABLE OF RECEIVING NFTS OR ELSE  THEY MAY BE PERMANENTLY LOST"
      }
    },
    "version": 1
  }
}